{
  "transactions": [
    {
      "hash": "0xac7c17234b6644ae2a7078e911dad6af6c615aed7c706427f189020c1975dd2a",
      "transactionType": "CALL",
      "contractName": null,
      "contractAddress": "0xc2aae1bdfb4d178b8a0d72750e10ffb98813948a",
      "function": "createGPToken(string,string,uint256,(string,uint256,address,uint256,uint256,bool)[],uint256,uint256,bytes32)",
      "arguments": [
        "Anokha",
        "ANK",
        "1000000000000000000000000",
        "[(Liquidity, 7000, 0x0000000000000000000000000000000000000000, 0, 0, true), (Team, 3000, 0x0035cd0CA79A5b156d5443b698655DBDc5403B45, 2592000, 7776000, false)]",
        "10000000000",
        "1000000000",
        "0x40d1803c166011bec55951c795d27be69e91fe733f7304f59542d53c70509f28"
      ],
      "transaction": {
        "from": "0x184ec9521b4c62d272870c804da6579637ebb851",
        "to": "0xc2aae1bdfb4d178b8a0d72750e10ffb98813948a",
        "gas": "0x15017b",
        "value": "0x0",
        "input": "0x6373781800000000000000000000000000000000000000000000000000000000000000e0000000000000000000000000000000000000000000000000000000000000012000000000000000000000000000000000000000000000d3c21bcecceda1000000000000000000000000000000000000000000000000000000000000000000016000000000000000000000000000000000000000000000000000000002540be400000000000000000000000000000000000000000000000000000000003b9aca0040d1803c166011bec55951c795d27be69e91fe733f7304f59542d53c70509f280000000000000000000000000000000000000000000000000000000000000006416e6f6b686100000000000000000000000000000000000000000000000000000000000000000000000000000000000000000000000000000000000000000003414e4b000000000000000000000000000000000000000000000000000000000000000000000000000000000000000000000000000000000000000000000000020000000000000000000000000000000000000000000000000000000000000040000000000000000000000000000000000000000000000000000000000000014000000000000000000000000000000000000000000000000000000000000000c00000000000000000000000000000000000000000000000000000000000001b58000000000000000000000000000000000000000000000000000000000000000000000000000000000000000000000000000000000000000000000000000000000000000000000000000000000000000000000000000000000000000000000000000000000000000000000000000000000000000000000000000000000000000100000000000000000000000000000000000000000000000000000000000000094c6971756964697479000000000000000000000000000000000000000000000000000000000000000000000000000000000000000000000000000000000000c00000000000000000000000000000000000000000000000000000000000000bb80000000000000000000000000035cd0ca79a5b156d5443b698655dbdc5403b450000000000000000000000000000000000000000000000000000000000278d00000000000000000000000000000000000000000000000000000000000076a700000000000000000000000000000000000000000000000000000000000000000000000000000000000000000000000000000000000000000000000000000000045465616d00000000000000000000000000000000000000000000000000000000",
        "nonce": "0x4f",
        "chainId": "0x2105"
      },
      "additionalContracts": [
        {
          "transactionType": "CREATE2",
          "contractName": null,
          "address": "0x50e0ea05586d9463e3d039e4f952fcac185b93d5",
          "initCode": "0x3d602d80600a3d3981f3363d3d373d3d3d363d735f10d97470e65bf48b54b90d0448763dc84f8d915af43d82803e903d91602b57fd5bf3"
        },
        {
          "transactionType": "CREATE2",
          "contractName": null,
          "address": "0x043c6f202d030fe00c8636fceab1ec7a1eb2dc97",
          "initCode": "0x3d602d80600a3d3981f3363d3d373d3d3d363d7338860e87f97c7b596bdc30ab7b3311f70cbd4b075af43d82803e903d91602b57fd5bf3"
        }
      ],
      "isFixedGasLimit": false
    },
    {
      "hash": "0x6004defaae7ba6fa655847625514007a3d316aad987ca2aa53968318a1316d93",
      "transactionType": "CALL",
      "contractName": null,
      "contractAddress": "0x7b851635eea924e8501e733909fcf91ab1b98348",
      "function": "mint(uint256)",
      "arguments": [
        "500000000"
      ],
      "transaction": {
        "from": "0x184ec9521b4c62d272870c804da6579637ebb851",
        "to": "0x7b851635eea924e8501e733909fcf91ab1b98348",
        "gas": "0x2623a",
        "value": "0x0",
        "input": "0xa0712d68000000000000000000000000000000000000000000000000000000001dcd6500",
        "nonce": "0x50",
        "chainId": "0x2105"
      },
      "additionalContracts": [],
      "isFixedGasLimit": false
    },
    {
      "hash": "0x582923cd5f0f6648a5bcce4a3452c64e9482eed62f6d26426cc0a5511713dd76",
      "transactionType": "CALL",
      "contractName": null,
      "contractAddress": "0x7b851635eea924e8501e733909fcf91ab1b98348",
      "function": "approve(address,uint256)",
      "arguments": [
        "0xc2AaE1Bdfb4D178B8a0D72750e10ffb98813948A",
        "500000000"
      ],
      "transaction": {
        "from": "0x184ec9521b4c62d272870c804da6579637ebb851",
        "to": "0x7b851635eea924e8501e733909fcf91ab1b98348",
        "gas": "0x108ae",
        "value": "0x0",
        "input": "0x095ea7b3000000000000000000000000c2aae1bdfb4d178b8a0d72750e10ffb98813948a000000000000000000000000000000000000000000000000000000001dcd6500",
        "nonce": "0x51",
        "chainId": "0x2105"
      },
      "additionalContracts": [],
      "isFixedGasLimit": false
    },
    {
      "hash": "0x400499b90d752b20861a60ff26a64a7d668cc5d213b3a1b63661dac18e5f5d19",
      "transactionType": "CALL",
      "contractName": null,
      "contractAddress": "0xc2aae1bdfb4d178b8a0d72750e10ffb98813948a",
      "function": "buyGPToken(address,uint256,address,uint256)",
      "arguments": [
        "0x50e0Ea05586D9463e3D039e4F952FCaC185B93D5",
        "500000000",
        "0x184EC9521b4C62D272870C804Da6579637EBb851",
        "0"
      ],
      "transaction": {
        "from": "0x184ec9521b4c62d272870c804da6579637ebb851",
        "to": "0xc2aae1bdfb4d178b8a0d72750e10ffb98813948a",
        "gas": "0x3ca48",
        "value": "0x0",
        "input": "0x4530097300000000000000000000000050e0ea05586d9463e3d039e4f952fcac185b93d5000000000000000000000000000000000000000000000000000000001dcd6500000000000000000000000000184ec9521b4c62d272870c804da6579637ebb8510000000000000000000000000000000000000000000000000000000000000000",
        "nonce": "0x52",
        "chainId": "0x2105"
      },
      "additionalContracts": [],
      "isFixedGasLimit": false
    },
    {
      "hash": "0x4be24453140f43444f0b1f78fcb65542c41599b1991d66e19391e513aad473da",
      "transactionType": "CALL",
      "contractName": null,
      "contractAddress": "0x50e0ea05586d9463e3d039e4f952fcac185b93d5",
      "function": "approve(address,uint256)",
      "arguments": [
        "0xc2AaE1Bdfb4D178B8a0D72750e10ffb98813948A",
        "116666666666666666666666"
      ],
      "transaction": {
        "from": "0x184ec9521b4c62d272870c804da6579637ebb851",
        "to": "0x50e0ea05586d9463e3d039e4f952fcac185b93d5",
        "gas": "0x118b8",
        "value": "0x0",
        "input": "0x095ea7b3000000000000000000000000c2aae1bdfb4d178b8a0d72750e10ffb98813948a0000000000000000000000000000000000000000000018b4833e86d774eaaaaa",
        "nonce": "0x53",
        "chainId": "0x2105"
      },
      "additionalContracts": [],
      "isFixedGasLimit": false
    },
    {
      "hash": "0xfa97c8fcc7d3830875d0ed586ea974abeb4c2c37e3b2f7a3247d31ef296966ca",
      "transactionType": "CALL",
      "contractName": null,
      "contractAddress": "0xc2aae1bdfb4d178b8a0d72750e10ffb98813948a",
      "function": "sellGPToken(address,uint256,address,uint256)",
      "arguments": [
        "0x50e0Ea05586D9463e3D039e4F952FCaC185B93D5",
        "116666666666666666666666",
        "0x184EC9521b4C62D272870C804Da6579637EBb851",
        "0"
      ],
      "transaction": {
        "from": "0x184ec9521b4c62d272870c804da6579637ebb851",
        "to": "0xc2aae1bdfb4d178b8a0d72750e10ffb98813948a",
        "gas": "0x371c7",
        "value": "0x0",
        "input": "0x2fef222600000000000000000000000050e0ea05586d9463e3d039e4f952fcac185b93d50000000000000000000000000000000000000000000018b4833e86d774eaaaaa000000000000000000000000184ec9521b4c62d272870c804da6579637ebb8510000000000000000000000000000000000000000000000000000000000000000",
        "nonce": "0x54",
        "chainId": "0x2105"
      },
      "additionalContracts": [],
      "isFixedGasLimit": false
    }
  ],
  "receipts": [
    {
      "type": "0x2",
      "status": "0x1",
      "cumulativeGasUsed": "0x1ca5220",
      "logs": [
        {
          "address": "0x50e0ea05586d9463e3d039e4f952fcac185b93d5",
          "topics": [
            "0xddf252ad1be2c89b69c2b068fc378daa952ba7f163c4a11628f55a4df523b3ef",
            "0x0000000000000000000000000000000000000000000000000000000000000000",
            "0x00000000000000000000000050e0ea05586d9463e3d039e4f952fcac185b93d5"
          ],
          "data": "0x00000000000000000000000000000000000000000000d3c21bcecceda1000000",
          "blockHash": "0x0000000000000000000000000000000000000000000000000000000000000000",
          "blockNumber": "0x2cc8da9",
          "blockTimestamp": "0x6a237835",
          "transactionHash": "0xac7c17234b6644ae2a7078e911dad6af6c615aed7c706427f189020c1975dd2a",
          "transactionIndex": "0x6e",
          "logIndex": "0x393",
          "removed": false
        },
        {
          "address": "0x1d5852b9f230e06a8402585572050fe3c418ebb7",
          "topics": [
            "0x0d3648bd0f6ba80134a33ba9275ac585d9d315f0ad8355cddefde31afa28d0e9",
            "0x00000000000000000000000050e0ea05586d9463e3d039e4f952fcac185b93d5",
            "0x0000000000000000000000007b851635eea924e8501e733909fcf91ab1b98348"
          ],
          "data": "0x000000000000000000000000043c6f202d030fe00c8636fceab1ec7a1eb2dc970000000000000000000000000000000000000000000000000000000000000001",
          "blockHash": "0x0000000000000000000000000000000000000000000000000000000000000000",
          "blockNumber": "0x2cc8da9",
          "blockTimestamp": "0x6a237835",
          "transactionHash": "0xac7c17234b6644ae2a7078e911dad6af6c615aed7c706427f189020c1975dd2a",
          "transactionIndex": "0x6e",
          "logIndex": "0x394",
          "removed": false
        },
        {
          "address": "0x50e0ea05586d9463e3d039e4f952fcac185b93d5",
          "topics": [
            "0xddf252ad1be2c89b69c2b068fc378daa952ba7f163c4a11628f55a4df523b3ef",
            "0x00000000000000000000000050e0ea05586d9463e3d039e4f952fcac185b93d5",
            "0x000000000000000000000000c2aae1bdfb4d178b8a0d72750e10ffb98813948a"
          ],
          "data": "0x00000000000000000000000000000000000000000000943b1377290cbd800000",
          "blockHash": "0x0000000000000000000000000000000000000000000000000000000000000000",
          "blockNumber": "0x2cc8da9",
          "blockTimestamp": "0x6a237835",
          "transactionHash": "0xac7c17234b6644ae2a7078e911dad6af6c615aed7c706427f189020c1975dd2a",
          "transactionIndex": "0x6e",
          "logIndex": "0x395",
          "removed": false
        },
        {
          "address": "0x50e0ea05586d9463e3d039e4f952fcac185b93d5",
          "topics": [
            "0x8c5be1e5ebec7d5bd14f71427d1e84f3dd0314c0f7b2291e5b200ac8c7c3b925",
            "0x000000000000000000000000c2aae1bdfb4d178b8a0d72750e10ffb98813948a",
            "0x000000000000000000000000bd9eeeb06eee9fc98a316ff4e551c22ad8e51e02"
          ],
          "data": "0x00000000000000000000000000000000000000000000943b1377290cbd800000",
          "blockHash": "0x0000000000000000000000000000000000000000000000000000000000000000",
          "blockNumber": "0x2cc8da9",
          "blockTimestamp": "0x6a237835",
          "transactionHash": "0xac7c17234b6644ae2a7078e911dad6af6c615aed7c706427f189020c1975dd2a",
          "transactionIndex": "0x6e",
          "logIndex": "0x396",
          "removed": false
        },
        {
          "address": "0x50e0ea05586d9463e3d039e4f952fcac185b93d5",
          "topics": [
            "0xddf252ad1be2c89b69c2b068fc378daa952ba7f163c4a11628f55a4df523b3ef",
            "0x000000000000000000000000c2aae1bdfb4d178b8a0d72750e10ffb98813948a",
            "0x000000000000000000000000043c6f202d030fe00c8636fceab1ec7a1eb2dc97"
          ],
          "data": "0x00000000000000000000000000000000000000000000943b1377290cbd800000",
          "blockHash": "0x0000000000000000000000000000000000000000000000000000000000000000",
          "blockNumber": "0x2cc8da9",
          "blockTimestamp": "0x6a237835",
          "transactionHash": "0xac7c17234b6644ae2a7078e911dad6af6c615aed7c706427f189020c1975dd2a",
          "transactionIndex": "0x6e",
          "logIndex": "0x397",
          "removed": false
        },
        {
          "address": "0x043c6f202d030fe00c8636fceab1ec7a1eb2dc97",
          "topics": [
            "0xcf2aa50876cdfbb541206f89af0ee78d44a2abf8d328e37fa4917f982149848a"
          ],
          "data": "0x00000000000000000000000000000000000000000000943b1377290cbd800000000000000000000000000000000000000000000000000000000000003b9aca00",
          "blockHash": "0x0000000000000000000000000000000000000000000000000000000000000000",
          "blockNumber": "0x2cc8da9",
          "blockTimestamp": "0x6a237835",
          "transactionHash": "0xac7c17234b6644ae2a7078e911dad6af6c615aed7c706427f189020c1975dd2a",
          "transactionIndex": "0x6e",
          "logIndex": "0x398",
          "removed": false
        },
        {
          "address": "0xbd9eeeb06eee9fc98a316ff4e551c22ad8e51e02",
          "topics": [
            "0x36f3b2e1a21c19137dd82ec243b0708a1d26b3d1fa1dc49c44c4c366a5878138",
            "0x000000000000000000000000043c6f202d030fe00c8636fceab1ec7a1eb2dc97",
            "0x00000000000000000000000050e0ea05586d9463e3d039e4f952fcac185b93d5"
          ],
          "data": "0x00000000000000000000000000000000000000000000943b1377290cbd800000000000000000000000000000000000000000000000000000000000003b9aca00",
          "blockHash": "0x0000000000000000000000000000000000000000000000000000000000000000",
          "blockNumber": "0x2cc8da9",
          "blockTimestamp": "0x6a237835",
          "transactionHash": "0xac7c17234b6644ae2a7078e911dad6af6c615aed7c706427f189020c1975dd2a",
          "transactionIndex": "0x6e",
          "logIndex": "0x399",
          "removed": false
        },
        {
          "address": "0xc2aae1bdfb4d178b8a0d72750e10ffb98813948a",
          "topics": [
            "0xe8041a7d7ccedd17322f7dd544a0491297c5c253dec37dce1b1c91bf07917152",
            "0x00000000000000000000000050e0ea05586d9463e3d039e4f952fcac185b93d5",
            "0x000000000000000000000000184ec9521b4c62d272870c804da6579637ebb851"
          ],
          "data": "0x000000000000000000000000000000000000000000000000000000000000006000000000000000000000000000000000000000000000000000000000000000a000000000000000000000000000000000000000000000d3c21bcecceda10000000000000000000000000000000000000000000000000000000000000000000006416e6f6b686100000000000000000000000000000000000000000000000000000000000000000000000000000000000000000000000000000000000000000003414e4b0000000000000000000000000000000000000000000000000000000000",
          "blockHash": "0x0000000000000000000000000000000000000000000000000000000000000000",
          "blockNumber": "0x2cc8da9",
          "blockTimestamp": "0x6a237835",
          "transactionHash": "0xac7c17234b6644ae2a7078e911dad6af6c615aed7c706427f189020c1975dd2a",
          "transactionIndex": "0x6e",
          "logIndex": "0x39a",
          "removed": false
        },
        {
          "address": "0xc2aae1bdfb4d178b8a0d72750e10ffb98813948a",
          "topics": [
            "0x8e26532d63f9bd3469e12de593b2f502ea7b66e9835478e5d126012f14bbcada",
            "0x00000000000000000000000050e0ea05586d9463e3d039e4f952fcac185b93d5",
            "0x0000000000000000000000000000000000000000000000000000000000000000"
          ],
          "data": "0x00000000000000000000000000000000000000000000000000000000000000c00000000000000000000000000000000000000000000000000000000000001b58000000000000000000000000000000000000000000000000000000000000000000000000000000000000000000000000000000000000000000000000000000000000000000000000000000000000000000000000000000000000000000000000000000000000000000000000000000000000000000000000000000000000000100000000000000000000000000000000000000000000000000000000000000094c69717569646974790000000000000000000000000000000000000000000000",
          "blockHash": "0x0000000000000000000000000000000000000000000000000000000000000000",
          "blockNumber": "0x2cc8da9",
          "blockTimestamp": "0x6a237835",
          "transactionHash": "0xac7c17234b6644ae2a7078e911dad6af6c615aed7c706427f189020c1975dd2a",
          "transactionIndex": "0x6e",
          "logIndex": "0x39b",
          "removed": false
        },
        {
          "address": "0xc2aae1bdfb4d178b8a0d72750e10ffb98813948a",
          "topics": [
            "0x8e26532d63f9bd3469e12de593b2f502ea7b66e9835478e5d126012f14bbcada",
            "0x00000000000000000000000050e0ea05586d9463e3d039e4f952fcac185b93d5",
            "0x0000000000000000000000000000000000000000000000000000000000000001"
          ],
          "data": "0x00000000000000000000000000000000000000000000000000000000000000c00000000000000000000000000000000000000000000000000000000000000bb80000000000000000000000000035cd0ca79a5b156d5443b698655dbdc5403b450000000000000000000000000000000000000000000000000000000000278d00000000000000000000000000000000000000000000000000000000000076a700000000000000000000000000000000000000000000000000000000000000000000000000000000000000000000000000000000000000000000000000000000045465616d00000000000000000000000000000000000000000000000000000000",
          "blockHash": "0x0000000000000000000000000000000000000000000000000000000000000000",
          "blockNumber": "0x2cc8da9",
          "blockTimestamp": "0x6a237835",
          "transactionHash": "0xac7c17234b6644ae2a7078e911dad6af6c615aed7c706427f189020c1975dd2a",
          "transactionIndex": "0x6e",
          "logIndex": "0x39c",
          "removed": false
        }
      ],
      "logsBloom": "0x00000000000000002200000000000000000002000000000000000000000000000020000000000000000000000000000000000000000000000000000000240080000001000000000010000008000000000000000001040100000400000008000000000000020400000000000020000810200100000000008080000010000000000000100000000000000000000000000000001000000000000000000004000000020008000800000000000000000002000a00000000000000002000000000020000000006000020000040000500000040000000000000000000001000000160000010000000000001080000020100002010020008000000000000000200200108",
      "transactionHash": "0xac7c17234b6644ae2a7078e911dad6af6c615aed7c706427f189020c1975dd2a",
      "transactionIndex": "0x6e",
      "blockHash": "0x0000000000000000000000000000000000000000000000000000000000000000",
      "blockNumber": "0x2cc8da9",
      "gasUsed": "0xe5ce9",
      "effectiveGasPrice": "0x55d4ae",
      "blobGasUsed": "0x9650",
      "from": "0x184ec9521b4c62d272870c804da6579637ebb851",
      "to": "0xc2aae1bdfb4d178b8a0d72750e10ffb98813948a",
      "contractAddress": null,
      "l1GasPrice": "0x8fbd98c",
      "l1GasUsed": "0x1043",
      "l1Fee": "0x732306c5",
      "l1BaseFeeScalar": "0x8dd",
      "l1BlobBaseFee": "0x86bc0b",
      "l1BlobBaseFeeScalar": "0x101c12",
      "daFootprintGasScalar": "0x94"
    },
    {
      "type": "0x2",
      "status": "0x1",
      "cumulativeGasUsed": "0x1cc0bec",
      "logs": [
        {
          "address": "0x7b851635eea924e8501e733909fcf91ab1b98348",
          "topics": [
            "0xddf252ad1be2c89b69c2b068fc378daa952ba7f163c4a11628f55a4df523b3ef",
            "0x0000000000000000000000000000000000000000000000000000000000000000",
            "0x000000000000000000000000184ec9521b4c62d272870c804da6579637ebb851"
          ],
          "data": "0x000000000000000000000000000000000000000000000000000000001dcd6500",
          "blockHash": "0x0000000000000000000000000000000000000000000000000000000000000000",
          "blockNumber": "0x2cc8da9",
          "blockTimestamp": "0x6a237835",
          "transactionHash": "0x6004defaae7ba6fa655847625514007a3d316aad987ca2aa53968318a1316d93",
          "transactionIndex": "0x6f",
          "logIndex": "0x39d",
          "removed": false
        }
      ],
      "logsBloom": "0x00000000000000000000000000000000000000000000000000000000000000000000000000000000000000000000000000000000000000000000000000000000000000000000000000000008000000000000000000000000000000000000000000000000020000000000000000000800000000000000000000000010000000000000100000000000000000000000000000000000000000000000000000000000000000000000000000000000000000000200000000000000000000000000020000000002000000000000000000000000000000000000000000000000000020200000002000000000000000000000000000000000000000000400000000000000",
      "transactionHash": "0x6004defaae7ba6fa655847625514007a3d316aad987ca2aa53968318a1316d93",
      "transactionIndex": "0x6f",
      "blockHash": "0x0000000000000000000000000000000000000000000000000000000000000000",
      "blockNumber": "0x2cc8da9",
      "gasUsed": "0x1b9cc",
      "effectiveGasPrice": "0x55d4ae",
      "blobGasUsed": "0x39d0",
      "from": "0x184ec9521b4c62d272870c804da6579637ebb851",
      "to": "0x7b851635eea924e8501e733909fcf91ab1b98348",
      "contractAddress": null,
      "l1GasPrice": "0x8fbd98c",
      "l1GasUsed": "0x640",
      "l1Fee": "0x732306c5",
      "l1BaseFeeScalar": "0x8dd",
      "l1BlobBaseFee": "0x86bc0b",
      "l1BlobBaseFeeScalar": "0x101c12",
      "daFootprintGasScalar": "0x94"
    },
    {
      "type": "0x2",
      "status": "0x1",
      "cumulativeGasUsed": "0x1ee08ed",
      "logs": [
        {
          "address": "0x7b851635eea924e8501e733909fcf91ab1b98348",
          "topics": [
            "0x8c5be1e5ebec7d5bd14f71427d1e84f3dd0314c0f7b2291e5b200ac8c7c3b925",
            "0x000000000000000000000000184ec9521b4c62d272870c804da6579637ebb851",
            "0x000000000000000000000000c2aae1bdfb4d178b8a0d72750e10ffb98813948a"
          ],
          "data": "0x000000000000000000000000000000000000000000000000000000001dcd6500",
          "blockHash": "0x0000000000000000000000000000000000000000000000000000000000000000",
          "blockNumber": "0x2cc8da9",
          "blockTimestamp": "0x6a237835",
          "transactionHash": "0x4be24453140f43444f0b1f78fcb65542c41599b1991d66e19391e513aad473da",
          "transactionIndex": "0x7d",
          "logIndex": "0x3ca",
          "removed": false
        }
      ],
      "logsBloom": "0x00000000000000000000000000000000000000000000000000000000000000000000000000000000000000000000000000000000000000000000000000200000000000000000000000000000000000000000000000000000000000000000000000000000000000000000000000000010200000000000000000000000000000000000100000000000000000000000000000000000000000000000000004000000020000000000000000000000000000000200000000000000000000000000020000000000000000000000000000000000000000000000000000000000000000200010002000000000000000000000000000000000000000000400000000000000",
      "transactionHash": "0x4be24453140f43444f0b1f78fcb65542c41599b1991d66e19391e513aad473da",
      "transactionIndex": "0x7d",
      "blockHash": "0x0000000000000000000000000000000000000000000000000000000000000000",
      "blockNumber": "0x2cc8da9",
      "gasUsed": "0xb4fb",
      "effectiveGasPrice": "0x55d4ae",
      "blobGasUsed": "0x39d0",
      "from": "0x184ec9521b4c62d272870c804da6579637ebb851",
      "to": "0x7b851635eea924e8501e733909fcf91ab1b98348",
      "contractAddress": null,
      "l1GasPrice": "0x8fbd98c",
      "l1GasUsed": "0x640",
      "l1Fee": "0xcddd711b",
      "l1BaseFeeScalar": "0x8dd",
      "l1BlobBaseFee": "0x86bc0b",
      "l1BlobBaseFeeScalar": "0x101c12",
      "daFootprintGasScalar": "0x94"
    },
    {
      "type": "0x2",
      "status": "0x1",
      "cumulativeGasUsed": "0x1f0c765",
      "logs": [
        {
          "address": "0x7b851635eea924e8501e733909fcf91ab1b98348",
          "topics": [
            "0xddf252ad1be2c89b69c2b068fc378daa952ba7f163c4a11628f55a4df523b3ef",
            "0x000000000000000000000000184ec9521b4c62d272870c804da6579637ebb851",
            "0x000000000000000000000000c2aae1bdfb4d178b8a0d72750e10ffb98813948a"
          ],
          "data": "0x000000000000000000000000000000000000000000000000000000001dcd6500",
          "blockHash": "0x0000000000000000000000000000000000000000000000000000000000000000",
          "blockNumber": "0x2cc8da9",
          "blockTimestamp": "0x6a237835",
          "transactionHash": "0x400499b90d752b20861a60ff26a64a7d668cc5d213b3a1b63661dac18e5f5d19",
          "transactionIndex": "0x7e",
          "logIndex": "0x3cb",
          "removed": false
        },
        {
          "address": "0x7b851635eea924e8501e733909fcf91ab1b98348",
          "topics": [
            "0x8c5be1e5ebec7d5bd14f71427d1e84f3dd0314c0f7b2291e5b200ac8c7c3b925",
            "0x000000000000000000000000c2aae1bdfb4d178b8a0d72750e10ffb98813948a",
            "0x000000000000000000000000bd9eeeb06eee9fc98a316ff4e551c22ad8e51e02"
          ],
          "data": "0x000000000000000000000000000000000000000000000000000000001dcd6500",
          "blockHash": "0x0000000000000000000000000000000000000000000000000000000000000000",
          "blockNumber": "0x2cc8da9",
          "blockTimestamp": "0x6a237835",
          "transactionHash": "0x400499b90d752b20861a60ff26a64a7d668cc5d213b3a1b63661dac18e5f5d19",
          "transactionIndex": "0x7e",
          "logIndex": "0x3cc",
          "removed": false
        },
        {
          "address": "0x7b851635eea924e8501e733909fcf91ab1b98348",
          "topics": [
            "0xddf252ad1be2c89b69c2b068fc378daa952ba7f163c4a11628f55a4df523b3ef",
            "0x000000000000000000000000c2aae1bdfb4d178b8a0d72750e10ffb98813948a",
            "0x000000000000000000000000043c6f202d030fe00c8636fceab1ec7a1eb2dc97"
          ],
          "data": "0x000000000000000000000000000000000000000000000000000000001dcd6500",
          "blockHash": "0x0000000000000000000000000000000000000000000000000000000000000000",
          "blockNumber": "0x2cc8da9",
          "blockTimestamp": "0x6a237835",
          "transactionHash": "0x400499b90d752b20861a60ff26a64a7d668cc5d213b3a1b63661dac18e5f5d19",
          "transactionIndex": "0x7e",
          "logIndex": "0x3cd",
          "removed": false
        },
        {
          "address": "0x50e0ea05586d9463e3d039e4f952fcac185b93d5",
          "topics": [
            "0xddf252ad1be2c89b69c2b068fc378daa952ba7f163c4a11628f55a4df523b3ef",
            "0x000000000000000000000000043c6f202d030fe00c8636fceab1ec7a1eb2dc97",
            "0x000000000000000000000000184ec9521b4c62d272870c804da6579637ebb851"
          ],
          "data": "0x000000000000000000000000000000000000000000003169067d0daee9d55555",
          "blockHash": "0x0000000000000000000000000000000000000000000000000000000000000000",
          "blockNumber": "0x2cc8da9",
          "blockTimestamp": "0x6a237835",
          "transactionHash": "0x400499b90d752b20861a60ff26a64a7d668cc5d213b3a1b63661dac18e5f5d19",
          "transactionIndex": "0x7e",
          "logIndex": "0x3ce",
          "removed": false
        },
        {
          "address": "0x043c6f202d030fe00c8636fceab1ec7a1eb2dc97",
          "topics": [
            "0xd78ad95fa46c994b6551d0da85fc275fe613ce37657fb8d5e3d130840159d822",
            "0x000000000000000000000000bd9eeeb06eee9fc98a316ff4e551c22ad8e51e02",
            "0x000000000000000000000000184ec9521b4c62d272870c804da6579637ebb851"
          ],
          "data": "0x0000000000000000000000000000000000000000000000000000000000000000000000000000000000000000000000000000000000000000000000001dcd6500000000000000000000000000000000000000000000003169067d0daee9d555550000000000000000000000000000000000000000000000000000000000000000",
          "blockHash": "0x0000000000000000000000000000000000000000000000000000000000000000",
          "blockNumber": "0x2cc8da9",
          "blockTimestamp": "0x6a237835",
          "transactionHash": "0x400499b90d752b20861a60ff26a64a7d668cc5d213b3a1b63661dac18e5f5d19",
          "transactionIndex": "0x7e",
          "logIndex": "0x3cf",
          "removed": false
        },
        {
          "address": "0x043c6f202d030fe00c8636fceab1ec7a1eb2dc97",
          "topics": [
            "0xcf2aa50876cdfbb541206f89af0ee78d44a2abf8d328e37fa4917f982149848a"
          ],
          "data": "0x0000000000000000000000000000000000000000000062d20cfa1b5dd3aaaaab0000000000000000000000000000000000000000000000000000000059682f00",
          "blockHash": "0x0000000000000000000000000000000000000000000000000000000000000000",
          "blockNumber": "0x2cc8da9",
          "blockTimestamp": "0x6a237835",
          "transactionHash": "0x400499b90d752b20861a60ff26a64a7d668cc5d213b3a1b63661dac18e5f5d19",
          "transactionIndex": "0x7e",
          "logIndex": "0x3d0",
          "removed": false
        },
        {
          "address": "0xbd9eeeb06eee9fc98a316ff4e551c22ad8e51e02",
          "topics": [
            "0x89f5adc174562e07c9c9b1cae7109bbecb21cf9d1b2847e550042b8653c54a0e",
            "0x000000000000000000000000043c6f202d030fe00c8636fceab1ec7a1eb2dc97",
            "0x000000000000000000000000184ec9521b4c62d272870c804da6579637ebb851"
          ],
          "data": "0x000000000000000000000000000000000000000000000000000000001dcd6500000000000000000000000000000000000000000000003169067d0daee9d55555",
          "blockHash": "0x0000000000000000000000000000000000000000000000000000000000000000",
          "blockNumber": "0x2cc8da9",
          "blockTimestamp": "0x6a237835",
          "transactionHash": "0x400499b90d752b20861a60ff26a64a7d668cc5d213b3a1b63661dac18e5f5d19",
          "transactionIndex": "0x7e",
          "logIndex": "0x3d1",
          "removed": false
        },
        {
          "address": "0xc2aae1bdfb4d178b8a0d72750e10ffb98813948a",
          "topics": [
            "0x48faf95e3c0614df62bd7451cfbb6668109270f59434ec9d5703f322b209949b",
            "0x00000000000000000000000050e0ea05586d9463e3d039e4f952fcac185b93d5",
            "0x000000000000000000000000184ec9521b4c62d272870c804da6579637ebb851"
          ],
          "data": "0x000000000000000000000000000000000000000000000000000000001dcd6500000000000000000000000000000000000000000000003169067d0daee9d55555",
          "blockHash": "0x0000000000000000000000000000000000000000000000000000000000000000",
          "blockNumber": "0x2cc8da9",
          "blockTimestamp": "0x6a237835",
          "transactionHash": "0x400499b90d752b20861a60ff26a64a7d668cc5d213b3a1b63661dac18e5f5d19",
          "transactionIndex": "0x7e",
          "logIndex": "0x3d2",
          "removed": false
        }
      ],
      "logsBloom": "0x00200000000000002000000000000000000002000000000000000000000000000000000000000000000000000000000000000000000000000000000000200080000000000000000010000008000000200000000001000100000500000000000000000000000400000000000020000010200000000000000000000010000080000000100000000000000000000000000000001000000000000000004004000000020000080000000800000000000000000a00000000000000002000000000020000000002004020000040000500008000000000000000000000001000000100200010002000000000000000000100002010020000000000000400000200000008",
      "transactionHash": "0x400499b90d752b20861a60ff26a64a7d668cc5d213b3a1b63661dac18e5f5d19",
      "transactionIndex": "0x7e",
      "blockHash": "0x0000000000000000000000000000000000000000000000000000000000000000",
      "blockNumber": "0x2cc8da9",
      "gasUsed": "0x2be78",
      "effectiveGasPrice": "0x55d4ae",
      "blobGasUsed": "0x40c0",
      "from": "0x184ec9521b4c62d272870c804da6579637ebb851",
      "to": "0xc2aae1bdfb4d178b8a0d72750e10ffb98813948a",
      "contractAddress": null,
      "l1GasPrice": "0x8fbd98c",
      "l1GasUsed": "0x702",
      "l1Fee": "0xcddd711b",
      "l1BaseFeeScalar": "0x8dd",
      "l1BlobBaseFee": "0x86bc0b",
      "l1BlobBaseFeeScalar": "0x101c12",
      "daFootprintGasScalar": "0x94"
    },
    {
      "type": "0x2",
      "status": "0x1",
      "cumulativeGasUsed": "0x1f18757",
      "logs": [
        {
          "address": "0x50e0ea05586d9463e3d039e4f952fcac185b93d5",
          "topics": [
            "0x8c5be1e5ebec7d5bd14f71427d1e84f3dd0314c0f7b2291e5b200ac8c7c3b925",
            "0x000000000000000000000000184ec9521b4c62d272870c804da6579637ebb851",
            "0x000000000000000000000000c2aae1bdfb4d178b8a0d72750e10ffb98813948a"
          ],
          "data": "0x0000000000000000000000000000000000000000000018b4833e86d774eaaaaa",
          "blockHash": "0x0000000000000000000000000000000000000000000000000000000000000000",
          "blockNumber": "0x2cc8da9",
          "blockTimestamp": "0x6a237835",
          "transactionHash": "0x582923cd5f0f6648a5bcce4a3452c64e9482eed62f6d26426cc0a5511713dd76",
          "transactionIndex": "0x7f",
          "logIndex": "0x3d3",
          "removed": false
        }
      ],
      "logsBloom": "0x00000000000000000000000000000000000000000000000000000000000000000000000000000000000000000000000000000000000000000000000000200000000000000000000000000000000000000000000000000100000000000000000000000000000000000000000000000010200000000000000000000000000000000000100000000000000000000000000000000000000000000000000004000000020000000000000000000000000000000200000000000000000000000000020000000000000020000000000000000000000000000000000000000000000000000010000000000000000000000000000000020000000000000000000000000000",
      "transactionHash": "0x582923cd5f0f6648a5bcce4a3452c64e9482eed62f6d26426cc0a5511713dd76",
      "transactionIndex": "0x7f",
      "blockHash": "0x0000000000000000000000000000000000000000000000000000000000000000",
      "blockNumber": "0x2cc8da9",
      "gasUsed": "0xbff2",
      "effectiveGasPrice": "0x55d4ae",
      "blobGasUsed": "0x39d0",
      "from": "0x184ec9521b4c62d272870c804da6579637ebb851",
      "to": "0x50e0ea05586d9463e3d039e4f952fcac185b93d5",
      "contractAddress": null,
      "l1GasPrice": "0x8fbd98c",
      "l1GasUsed": "0x640",
      "l1Fee": "0xcddd711b",
      "l1BaseFeeScalar": "0x8dd",
      "l1BlobBaseFee": "0x86bc0b",
      "l1BlobBaseFeeScalar": "0x101c12",
      "daFootprintGasScalar": "0x94"
    },
    {
      "type": "0x2",
      "status": "0x1",
      "cumulativeGasUsed": "0x1f405bc",
      "logs": [
        {
          "address": "0x50e0ea05586d9463e3d039e4f952fcac185b93d5",
          "topics": [
            "0xddf252ad1be2c89b69c2b068fc378daa952ba7f163c4a11628f55a4df523b3ef",
            "0x000000000000000000000000184ec9521b4c62d272870c804da6579637ebb851",
            "0x000000000000000000000000c2aae1bdfb4d178b8a0d72750e10ffb98813948a"
          ],
          "data": "0x0000000000000000000000000000000000000000000018b4833e86d774eaaaaa",
          "blockHash": "0x0000000000000000000000000000000000000000000000000000000000000000",
          "blockNumber": "0x2cc8da9",
          "blockTimestamp": "0x6a237835",
          "transactionHash": "0xfa97c8fcc7d3830875d0ed586ea974abeb4c2c37e3b2f7a3247d31ef296966ca",
          "transactionIndex": "0x80",
          "logIndex": "0x3d4",
          "removed": false
        },
        {
          "address": "0x50e0ea05586d9463e3d039e4f952fcac185b93d5",
          "topics": [
            "0x8c5be1e5ebec7d5bd14f71427d1e84f3dd0314c0f7b2291e5b200ac8c7c3b925",
            "0x000000000000000000000000c2aae1bdfb4d178b8a0d72750e10ffb98813948a",
            "0x000000000000000000000000bd9eeeb06eee9fc98a316ff4e551c22ad8e51e02"
          ],
          "data": "0x0000000000000000000000000000000000000000000018b4833e86d774eaaaaa",
          "blockHash": "0x0000000000000000000000000000000000000000000000000000000000000000",
          "blockNumber": "0x2cc8da9",
          "blockTimestamp": "0x6a237835",
          "transactionHash": "0xfa97c8fcc7d3830875d0ed586ea974abeb4c2c37e3b2f7a3247d31ef296966ca",
          "transactionIndex": "0x80",
          "logIndex": "0x3d5",
          "removed": false
        },
        {
          "address": "0x50e0ea05586d9463e3d039e4f952fcac185b93d5",
          "topics": [
            "0xddf252ad1be2c89b69c2b068fc378daa952ba7f163c4a11628f55a4df523b3ef",
            "0x000000000000000000000000c2aae1bdfb4d178b8a0d72750e10ffb98813948a",
            "0x000000000000000000000000043c6f202d030fe00c8636fceab1ec7a1eb2dc97"
          ],
          "data": "0x0000000000000000000000000000000000000000000018b4833e86d774eaaaaa",
          "blockHash": "0x0000000000000000000000000000000000000000000000000000000000000000",
          "blockNumber": "0x2cc8da9",
          "blockTimestamp": "0x6a237835",
          "transactionHash": "0xfa97c8fcc7d3830875d0ed586ea974abeb4c2c37e3b2f7a3247d31ef296966ca",
          "transactionIndex": "0x80",
          "logIndex": "0x3d6",
          "removed": false
        },
        {
          "address": "0x7b851635eea924e8501e733909fcf91ab1b98348",
          "topics": [
            "0xddf252ad1be2c89b69c2b068fc378daa952ba7f163c4a11628f55a4df523b3ef",
            "0x000000000000000000000000043c6f202d030fe00c8636fceab1ec7a1eb2dc97",
            "0x000000000000000000000000184ec9521b4c62d272870c804da6579637ebb851"
          ],
          "data": "0x0000000000000000000000000000000000000000000000000000000011e1a2ff",
          "blockHash": "0x0000000000000000000000000000000000000000000000000000000000000000",
          "blockNumber": "0x2cc8da9",
          "blockTimestamp": "0x6a237835",
          "transactionHash": "0xfa97c8fcc7d3830875d0ed586ea974abeb4c2c37e3b2f7a3247d31ef296966ca",
          "transactionIndex": "0x80",
          "logIndex": "0x3d7",
          "removed": false
        },
        {
          "address": "0x043c6f202d030fe00c8636fceab1ec7a1eb2dc97",
          "topics": [
            "0xd78ad95fa46c994b6551d0da85fc275fe613ce37657fb8d5e3d130840159d822",
            "0x000000000000000000000000bd9eeeb06eee9fc98a316ff4e551c22ad8e51e02",
            "0x000000000000000000000000184ec9521b4c62d272870c804da6579637ebb851"
          ],
          "data": "0x0000000000000000000000000000000000000000000018b4833e86d774eaaaaa000000000000000000000000000000000000000000000000000000000000000000000000000000000000000000000000000000000000000000000000000000000000000000000000000000000000000000000000000000000000000011e1a2ff",
          "blockHash": "0x0000000000000000000000000000000000000000000000000000000000000000",
          "blockNumber": "0x2cc8da9",
          "blockTimestamp": "0x6a237835",
          "transactionHash": "0xfa97c8fcc7d3830875d0ed586ea974abeb4c2c37e3b2f7a3247d31ef296966ca",
          "transactionIndex": "0x80",
          "logIndex": "0x3d8",
          "removed": false
        },
        {
          "address": "0x043c6f202d030fe00c8636fceab1ec7a1eb2dc97",
          "topics": [
            "0xcf2aa50876cdfbb541206f89af0ee78d44a2abf8d328e37fa4917f982149848a"
          ],
          "data": "0x000000000000000000000000000000000000000000007b869038a235489555550000000000000000000000000000000000000000000000000000000047868c01",
          "blockHash": "0x0000000000000000000000000000000000000000000000000000000000000000",
          "blockNumber": "0x2cc8da9",
          "blockTimestamp": "0x6a237835",
          "transactionHash": "0xfa97c8fcc7d3830875d0ed586ea974abeb4c2c37e3b2f7a3247d31ef296966ca",
          "transactionIndex": "0x80",
          "logIndex": "0x3d9",
          "removed": false
        },
        {
          "address": "0xbd9eeeb06eee9fc98a316ff4e551c22ad8e51e02",
          "topics": [
            "0xa082022e93cfcd9f1da5f9236718053910f7e840da080c789c7845698dc032ff",
            "0x000000000000000000000000043c6f202d030fe00c8636fceab1ec7a1eb2dc97",
            "0x000000000000000000000000184ec9521b4c62d272870c804da6579637ebb851"
          ],
          "data": "0x0000000000000000000000000000000000000000000018b4833e86d774eaaaaa0000000000000000000000000000000000000000000000000000000011e1a2ff",
          "blockHash": "0x0000000000000000000000000000000000000000000000000000000000000000",
          "blockNumber": "0x2cc8da9",
          "blockTimestamp": "0x6a237835",
          "transactionHash": "0xfa97c8fcc7d3830875d0ed586ea974abeb4c2c37e3b2f7a3247d31ef296966ca",
          "transactionIndex": "0x80",
          "logIndex": "0x3da",
          "removed": false
        },
        {
          "address": "0xc2aae1bdfb4d178b8a0d72750e10ffb98813948a",
          "topics": [
            "0x3661b08be976ae30b00066cac1dccc81f4bce90a02a49ad772cf95b08f029082",
            "0x00000000000000000000000050e0ea05586d9463e3d039e4f952fcac185b93d5",
            "0x000000000000000000000000184ec9521b4c62d272870c804da6579637ebb851"
          ],
          "data": "0x0000000000000000000000000000000000000000000018b4833e86d774eaaaaa0000000000000000000000000000000000000000000000000000000011e1a2ff",
          "blockHash": "0x0000000000000000000000000000000000000000000000000000000000000000",
          "blockNumber": "0x2cc8da9",
          "blockTimestamp": "0x6a237835",
          "transactionHash": "0xfa97c8fcc7d3830875d0ed586ea974abeb4c2c37e3b2f7a3247d31ef296966ca",
          "transactionIndex": "0x80",
          "logIndex": "0x3db",
          "removed": false
        }
      ],
      "logsBloom": "0x00200000000000002000000000000000000002000000000000000000000000000000000000000000000400000000000000000000000000000000000000200080000000000000000010000008000000200000000001000100000400000000000020000000000400000000000020000010200000000000000000000010000000000040100000000000000000000040000000001000000002000000004004001000020000000000000000000000000000000a00000000000000002000000000020000000002000020000040000500000000000000000000000000001000000100200010002000000000000000000100002010020000000000000400000200000008",
      "transactionHash": "0xfa97c8fcc7d3830875d0ed586ea974abeb4c2c37e3b2f7a3247d31ef296966ca",
      "transactionIndex": "0x80",
      "blockHash": "0x0000000000000000000000000000000000000000000000000000000000000000",
      "blockNumber": "0x2cc8da9",
      "gasUsed": "0x27e65",
      "effectiveGasPrice": "0x55d4ae",
      "blobGasUsed": "0x4438",
      "from": "0x184ec9521b4c62d272870c804da6579637ebb851",
      "to": "0xc2aae1bdfb4d178b8a0d72750e10ffb98813948a",
      "contractAddress": null,
      "l1GasPrice": "0x8fbd98c",
      "l1GasUsed": "0x760",
      "l1Fee": "0xcddd711b",
      "l1BaseFeeScalar": "0x8dd",
      "l1BlobBaseFee": "0x86bc0b",
      "l1BlobBaseFeeScalar": "0x101c12",
      "daFootprintGasScalar": "0x94"
    }
  ],
  "libraries": [],
  "pending": [],
  "returns": {},
  "timestamp": 1780709429048,
  "chain": 8453,
  "commit": "e94c089"
}